{
  "_format": "hh-sol-artifact-1",
  "contractName": "PowerloomDataMarket",
  "sourceName": "contracts/DataMarket.sol",
  "abi": [
    {
      "inputs": [],
      "stateMutability": "nonpayable",
      "type": "constructor"
    },
    {
      "inputs": [
        {
          "internalType": "address",
          "name": "target",
          "type": "address"
        }
      ],
      "name": "AddressEmptyCode",
      "type": "error"
    },
    {
      "inputs": [
        {
          "internalType": "address",
          "name": "implementation",
          "type": "address"
        }
      ],
      "name": "ERC1967InvalidImplementation",
      "type": "error"
    },
    {
      "inputs": [],
      "name": "ERC1967NonPayable",
      "type": "error"
    },
    {
      "inputs": [],
      "name": "FailedCall",
      "type": "error"
    },
    {
      "inputs": [],
      "name": "InvalidInitialization",
      "type": "error"
    },
    {
      "inputs": [],
      "name": "NotInitializing",
      "type": "error"
    },
    {
      "inputs": [
        {
          "internalType": "address",
          "name": "owner",
          "type": "address"
        }
      ],
      "name": "OwnableInvalidOwner",
      "type": "error"
    },
    {
      "inputs": [
        {
          "internalType": "address",
          "name": "account",
          "type": "address"
        }
      ],
      "name": "OwnableUnauthorizedAccount",
      "type": "error"
    },
    {
      "inputs": [],
      "name": "UUPSUnauthorizedCallContext",
      "type": "error"
    },
    {
      "inputs": [
        {
          "internalType": "bytes32",
          "name": "slot",
          "type": "bytes32"
        }
      ],
      "name": "UUPSUnsupportedProxiableUUID",
      "type": "error"
    },
    {
      "anonymous": false,
      "inputs": [
        {
          "indexed": true,
          "internalType": "uint256",
          "name": "epochId",
          "type": "uint256"
        },
        {
          "indexed": false,
          "internalType": "uint256",
          "name": "timestamp",
          "type": "uint256"
        }
      ],
      "name": "BatchSubmissionsCompleted",
      "type": "event"
    },
    {
      "anonymous": false,
      "inputs": [
        {
          "indexed": false,
          "internalType": "address",
          "name": "snapshotterAddress",
          "type": "address"
        },
        {
          "indexed": false,
          "internalType": "uint256",
          "name": "slotId",
          "type": "uint256"
        },
        {
          "indexed": false,
          "internalType": "uint256",
          "name": "dayId",
          "type": "uint256"
        },
        {
          "indexed": false,
          "internalType": "uint256",
          "name": "timestamp",
          "type": "uint256"
        }
      ],
      "name": "DailyTaskCompletedEvent",
      "type": "event"
    },
    {
      "anonymous": false,
      "inputs": [
        {
          "indexed": false,
          "internalType": "uint256",
          "name": "dayId",
          "type": "uint256"
        },
        {
          "indexed": false,
          "internalType": "uint256",
          "name": "timestamp",
          "type": "uint256"
        }
      ],
      "name": "DayStartedEvent",
      "type": "event"
    },
    {
      "anonymous": false,
      "inputs": [
        {
          "indexed": true,
          "internalType": "uint256",
          "name": "epochId",
          "type": "uint256"
        },
        {
          "indexed": false,
          "internalType": "uint256",
          "name": "begin",
          "type": "uint256"
        },
        {
          "indexed": false,
          "internalType": "uint256",
          "name": "end",
          "type": "uint256"
        },
        {
          "indexed": false,
          "internalType": "uint256",
          "name": "timestamp",
          "type": "uint256"
        }
      ],
      "name": "EpochReleased",
      "type": "event"
    },
    {
      "anonymous": false,
      "inputs": [
        {
          "indexed": false,
          "internalType": "uint64",
          "name": "version",
          "type": "uint64"
        }
      ],
      "name": "Initialized",
      "type": "event"
    },
    {
      "anonymous": false,
      "inputs": [
        {
          "indexed": true,
          "internalType": "address",
          "name": "previousOwner",
          "type": "address"
        },
        {
          "indexed": true,
          "internalType": "address",
          "name": "newOwner",
          "type": "address"
        }
      ],
      "name": "OwnershipTransferred",
      "type": "event"
    },
    {
      "anonymous": false,
      "inputs": [
        {
          "indexed": false,
          "internalType": "address",
          "name": "snapshotterAddress",
          "type": "address"
        },
        {
          "indexed": false,
          "internalType": "uint256",
          "name": "slotId",
          "type": "uint256"
        },
        {
          "indexed": false,
          "internalType": "uint256",
          "name": "dayId",
          "type": "uint256"
        },
        {
          "indexed": false,
          "internalType": "uint256",
          "name": "rewardPoints",
          "type": "uint256"
        },
        {
          "indexed": false,
          "internalType": "uint256",
          "name": "timestamp",
          "type": "uint256"
        }
      ],
      "name": "RewardsDistributedEvent",
      "type": "event"
    },
    {
      "anonymous": false,
      "inputs": [
        {
          "indexed": false,
          "internalType": "string",
          "name": "batchCid",
          "type": "string"
        },
        {
          "indexed": true,
          "internalType": "uint256",
          "name": "epochId",
          "type": "uint256"
        },
        {
          "indexed": false,
          "internalType": "uint256",
          "name": "timestamp",
          "type": "uint256"
        }
      ],
      "name": "SnapshotBatchSubmitted",
      "type": "event"
    },
    {
      "anonymous": false,
      "inputs": [
        {
          "indexed": true,
          "internalType": "uint256",
          "name": "epochId",
          "type": "uint256"
        },
        {
          "indexed": false,
          "internalType": "uint256",
          "name": "epochEnd",
          "type": "uint256"
        },
        {
          "indexed": false,
          "internalType": "string",
          "name": "projectId",
          "type": "string"
        },
        {
          "indexed": false,
          "internalType": "string",
          "name": "snapshotCid",
          "type": "string"
        },
        {
          "indexed": false,
          "internalType": "uint256",
          "name": "timestamp",
          "type": "uint256"
        }
      ],
      "name": "SnapshotFinalized",
      "type": "event"
    },
    {
      "anonymous": false,
      "inputs": [
        {
          "indexed": false,
          "internalType": "uint256",
          "name": "snapshotCommitWindow",
          "type": "uint256"
        },
        {
          "indexed": false,
          "internalType": "uint256",
          "name": "snapshotRevealWindow",
          "type": "uint256"
        },
        {
          "indexed": false,
          "internalType": "uint256",
          "name": "validatorVoteCommitWindow",
          "type": "uint256"
        },
        {
          "indexed": false,
          "internalType": "uint256",
          "name": "validatorVoteRevealWindow",
          "type": "uint256"
        },
        {
          "indexed": false,
          "internalType": "uint256",
          "name": "p1submissionWindow",
          "type": "uint256"
        },
        {
          "indexed": false,
          "internalType": "uint256",
          "name": "pNsubmissionWindow",
          "type": "uint256"
        },
        {
          "indexed": false,
          "internalType": "uint256",
          "name": "timestamp",
          "type": "uint256"
        }
      ],
      "name": "SubmissionWindowConfigUpdated",
      "type": "event"
    },
    {
      "anonymous": false,
      "inputs": [
        {
          "indexed": true,
          "internalType": "address",
          "name": "implementation",
          "type": "address"
        }
      ],
      "name": "Upgraded",
      "type": "event"
    },
    {
      "inputs": [],
      "name": "DAY_SIZE",
      "outputs": [
        {
          "internalType": "uint256",
          "name": "",
          "type": "uint256"
        }
      ],
      "stateMutability": "view",
      "type": "function"
    },
    {
      "inputs": [],
      "name": "EPOCH_SIZE",
      "outputs": [
        {
          "internalType": "uint8",
          "name": "",
          "type": "uint8"
        }
      ],
      "stateMutability": "view",
      "type": "function"
    },
    {
      "inputs": [],
      "name": "SOURCE_CHAIN_BLOCK_TIME",
      "outputs": [
        {
          "internalType": "uint256",
          "name": "",
          "type": "uint256"
        }
      ],
      "stateMutability": "view",
      "type": "function"
    },
    {
      "inputs": [],
      "name": "SOURCE_CHAIN_ID",
      "outputs": [
        {
          "internalType": "uint256",
          "name": "",
          "type": "uint256"
        }
      ],
      "stateMutability": "view",
      "type": "function"
    },
    {
      "inputs": [],
      "name": "UPGRADE_INTERFACE_VERSION",
      "outputs": [
        {
          "internalType": "string",
          "name": "",
          "type": "string"
        }
      ],
      "stateMutability": "view",
      "type": "function"
    },
    {
      "inputs": [],
      "name": "USE_BLOCK_NUMBER_AS_EPOCH_ID",
      "outputs": [
        {
          "internalType": "bool",
          "name": "",
          "type": "bool"
        }
      ],
      "stateMutability": "view",
      "type": "function"
    },
    {
      "inputs": [
        {
          "internalType": "string",
          "name": "batchCid",
          "type": "string"
        },
        {
          "internalType": "uint256",
          "name": "",
          "type": "uint256"
        }
      ],
      "name": "batchCidToProjects",
      "outputs": [
        {
          "internalType": "string",
          "name": "projectids",
          "type": "string"
        }
      ],
      "stateMutability": "view",
      "type": "function"
    },
    {
      "inputs": [
        {
          "internalType": "string",
          "name": "batchCid",
          "type": "string"
        }
      ],
      "name": "batchCidToProjectsLen",
      "outputs": [
        {
          "internalType": "uint256",
          "name": "",
          "type": "uint256"
        }
      ],
      "stateMutability": "view",
      "type": "function"
    },
    {
      "inputs": [
        {
          "internalType": "string",
          "name": "batchCid",
          "type": "string"
        }
      ],
      "name": "batchCidValidatorAttestation",
      "outputs": [
        {
          "internalType": "bytes32",
          "name": "finalizedCidsRootHash",
          "type": "bytes32"
        }
      ],
      "stateMutability": "view",
      "type": "function"
    },
    {
      "inputs": [
        {
          "internalType": "uint256",
          "name": "slotId",
          "type": "uint256"
        },
        {
          "internalType": "uint256",
          "name": "day",
          "type": "uint256"
        }
      ],
      "name": "checkSlotTaskStatusForDay",
      "outputs": [
        {
          "internalType": "bool",
          "name": "",
          "type": "bool"
        }
      ],
      "stateMutability": "view",
      "type": "function"
    },
    {
      "inputs": [],
      "name": "currentEpoch",
      "outputs": [
        {
          "internalType": "uint256",
          "name": "begin",
          "type": "uint256"
        },
        {
          "internalType": "uint256",
          "name": "end",
          "type": "uint256"
        },
        {
          "internalType": "uint256",
          "name": "epochId",
          "type": "uint256"
        }
      ],
      "stateMutability": "view",
      "type": "function"
    },
    {
      "inputs": [],
      "name": "dailySnapshotQuota",
      "outputs": [
        {
          "internalType": "uint256",
          "name": "",
          "type": "uint256"
        }
      ],
      "stateMutability": "view",
      "type": "function"
    },
    {
      "inputs": [],
      "name": "dayCounter",
      "outputs": [
        {
          "internalType": "uint256",
          "name": "",
          "type": "uint256"
        }
      ],
      "stateMutability": "view",
      "type": "function"
    },
    {
      "inputs": [],
      "name": "deploymentBlockNumber",
      "outputs": [
        {
          "internalType": "uint256",
          "name": "",
          "type": "uint256"
        }
      ],
      "stateMutability": "view",
      "type": "function"
    },
    {
      "inputs": [
        {
          "internalType": "uint256",
          "name": "dayId",
          "type": "uint256"
        }
      ],
      "name": "eligibleNodesForDay",
      "outputs": [
        {
          "internalType": "uint256",
          "name": "eligibleNodes",
          "type": "uint256"
        }
      ],
      "stateMutability": "view",
      "type": "function"
    },
    {
      "inputs": [
        {
          "internalType": "uint256",
          "name": "epochId",
          "type": "uint256"
        }
      ],
      "name": "endBatchSubmissions",
      "outputs": [],
      "stateMutability": "nonpayable",
      "type": "function"
    },
    {
      "inputs": [],
      "name": "epochIdCounter",
      "outputs": [
        {
          "internalType": "uint256",
          "name": "",
          "type": "uint256"
        }
      ],
      "stateMutability": "view",
      "type": "function"
    },
    {
      "inputs": [
        {
          "internalType": "uint256",
          "name": "epochId",
          "type": "uint256"
        },
        {
          "internalType": "uint256",
          "name": "",
          "type": "uint256"
        }
      ],
      "name": "epochIdToBatchCids",
      "outputs": [
        {
          "internalType": "string",
          "name": "batchCids",
          "type": "string"
        }
      ],
      "stateMutability": "view",
      "type": "function"
    },
    {
      "inputs": [
        {
          "internalType": "uint256",
          "name": "epochId",
          "type": "uint256"
        }
      ],
      "name": "epochIdToBatchSubmissionsCompleted",
      "outputs": [
        {
          "internalType": "bool",
          "name": "batchSubmissionsCompleted",
          "type": "bool"
        }
      ],
      "stateMutability": "view",
      "type": "function"
    },
    {
      "inputs": [
        {
          "internalType": "uint256",
          "name": "",
          "type": "uint256"
        }
      ],
      "name": "epochInfo",
      "outputs": [
        {
          "internalType": "uint256",
          "name": "timestamp",
          "type": "uint256"
        },
        {
          "internalType": "uint256",
          "name": "blocknumber",
          "type": "uint256"
        },
        {
          "internalType": "uint256",
          "name": "epochEnd",
          "type": "uint256"
        }
      ],
      "stateMutability": "view",
      "type": "function"
    },
    {
      "inputs": [],
      "name": "epochManager",
      "outputs": [
        {
          "internalType": "address",
          "name": "",
          "type": "address"
        }
      ],
      "stateMutability": "view",
      "type": "function"
    },
    {
      "inputs": [],
      "name": "epochsInADay",
      "outputs": [
        {
          "internalType": "uint256",
          "name": "",
          "type": "uint256"
        }
      ],
      "stateMutability": "view",
      "type": "function"
    },
    {
      "inputs": [
        {
          "internalType": "uint256",
          "name": "begin",
          "type": "uint256"
        },
        {
          "internalType": "uint256",
          "name": "end",
          "type": "uint256"
        },
        {
          "internalType": "address",
          "name": "_sender",
          "type": "address"
        }
      ],
      "name": "forceSkipEpoch",
      "outputs": [
        {
          "internalType": "bool",
          "name": "",
          "type": "bool"
        },
        {
          "internalType": "bool",
          "name": "",
          "type": "bool"
        }
      ],
      "stateMutability": "nonpayable",
      "type": "function"
    },
    {
      "inputs": [
        {
          "internalType": "string",
          "name": "batchCid",
          "type": "string"
        }
      ],
      "name": "getBatchCidToProjects",
      "outputs": [
        {
          "internalType": "string[]",
          "name": "",
          "type": "string[]"
        }
      ],
      "stateMutability": "view",
      "type": "function"
    },
    {
      "inputs": [
        {
          "internalType": "uint256",
          "name": "epochId",
          "type": "uint256"
        }
      ],
      "name": "getEpochIdToBatchCids",
      "outputs": [
        {
          "internalType": "string[]",
          "name": "",
          "type": "string[]"
        }
      ],
      "stateMutability": "view",
      "type": "function"
    },
    {
      "inputs": [],
      "name": "getEpochManager",
      "outputs": [
        {
          "internalType": "address",
          "name": "",
          "type": "address"
        }
      ],
      "stateMutability": "view",
      "type": "function"
    },
    {
      "inputs": [],
      "name": "getPreSubmissionWindow",
      "outputs": [
        {
          "internalType": "uint256",
          "name": "",
          "type": "uint256"
        }
      ],
      "stateMutability": "view",
      "type": "function"
    },
    {
      "inputs": [
        {
          "internalType": "uint256",
          "name": "slotId",
          "type": "uint256"
        }
      ],
      "name": "getSlotInfo",
      "outputs": [
        {
          "components": [
            {
              "internalType": "uint256",
              "name": "slotId",
              "type": "uint256"
            },
            {
              "internalType": "address",
              "name": "snapshotterAddress",
              "type": "address"
            },
            {
              "internalType": "uint256",
              "name": "rewardPoints",
              "type": "uint256"
            },
            {
              "internalType": "uint256",
              "name": "currentDaySnapshotCount",
              "type": "uint256"
            }
          ],
          "internalType": "struct PowerloomDataMarket.SlotInfo",
          "name": "",
          "type": "tuple"
        }
      ],
      "stateMutability": "view",
      "type": "function"
    },
    {
      "inputs": [],
      "name": "getSubmissionWindowConfig",
      "outputs": [
        {
          "internalType": "uint256",
          "name": "_snapshotCommitWindow",
          "type": "uint256"
        },
        {
          "internalType": "uint256",
          "name": "_snapshotRevealWindow",
          "type": "uint256"
        },
        {
          "internalType": "uint256",
          "name": "_validatorVoteCommitWindow",
          "type": "uint256"
        },
        {
          "internalType": "uint256",
          "name": "_validatorVoteRevealWindow",
          "type": "uint256"
        },
        {
          "internalType": "uint256",
          "name": "_p1submissionWindow",
          "type": "uint256"
        },
        {
          "internalType": "uint256",
          "name": "_pNsubmissionWindow",
          "type": "uint256"
        }
      ],
      "stateMutability": "view",
      "type": "function"
    },
    {
      "inputs": [],
      "name": "getSubmissionWindows",
      "outputs": [
        {
          "internalType": "uint256",
          "name": "preSubmisisonWindow",
          "type": "uint256"
        },
        {
          "internalType": "uint256",
          "name": "p1SubmissionWindow",
          "type": "uint256"
        },
        {
          "internalType": "uint256",
          "name": "pNSubmissionWindow",
          "type": "uint256"
        }
      ],
      "stateMutability": "view",
      "type": "function"
    },
    {
      "inputs": [],
      "name": "getTotalSnapshotterCount",
      "outputs": [
        {
          "internalType": "uint256",
          "name": "",
          "type": "uint256"
        }
      ],
      "stateMutability": "view",
      "type": "function"
    },
    {
      "inputs": [
        {
          "internalType": "address",
          "name": "initialOwner",
          "type": "address"
        },
        {
          "internalType": "uint8",
          "name": "_epochSize",
          "type": "uint8"
        },
        {
          "internalType": "uint256",
          "name": "_sourceChainId",
          "type": "uint256"
        },
        {
          "internalType": "uint256",
          "name": "_sourceChainBlockTime",
          "type": "uint256"
        },
        {
          "internalType": "bool",
          "name": "_useBlockNumberAsEpochId",
          "type": "bool"
        },
        {
          "internalType": "address",
          "name": "_protocolStateAddress",
          "type": "address"
        }
      ],
      "name": "initialize",
      "outputs": [],
      "stateMutability": "nonpayable",
      "type": "function"
    },
    {
      "inputs": [
        {
          "internalType": "address",
          "name": "_address",
          "type": "address"
        }
      ],
      "name": "isEpochManager",
      "outputs": [
        {
          "internalType": "bool",
          "name": "",
          "type": "bool"
        }
      ],
      "stateMutability": "view",
      "type": "function"
    },
    {
      "inputs": [],
      "name": "isInitialized",
      "outputs": [
        {
          "internalType": "bool",
          "name": "",
          "type": "bool"
        }
      ],
      "stateMutability": "view",
      "type": "function"
    },
    {
      "inputs": [
        {
          "internalType": "address",
          "name": "ownerAddress",
          "type": "address"
        }
      ],
      "name": "isOwner",
      "outputs": [
        {
          "internalType": "bool",
          "name": "",
          "type": "bool"
        }
      ],
      "stateMutability": "view",
      "type": "function"
    },
    {
      "inputs": [
        {
          "internalType": "string",
          "name": "projectId",
          "type": "string"
        }
      ],
      "name": "lastFinalizedSnapshot",
      "outputs": [
        {
          "internalType": "uint256",
          "name": "epochId",
          "type": "uint256"
        }
      ],
      "stateMutability": "view",
      "type": "function"
    },
    {
      "inputs": [
        {
          "internalType": "uint256",
          "name": "_dayCounter",
          "type": "uint256"
        },
        {
          "internalType": "address",
          "name": "_sender",
          "type": "address"
        }
      ],
      "name": "loadCurrentDay",
      "outputs": [],
      "stateMutability": "nonpayable",
      "type": "function"
    },
    {
      "inputs": [
        {
          "internalType": "uint256",
          "name": "slotId",
          "type": "uint256"
        },
        {
          "internalType": "uint256",
          "name": "dayId",
          "type": "uint256"
        },
        {
          "internalType": "uint256",
          "name": "snapshotCount",
          "type": "uint256"
        },
        {
          "internalType": "address",
          "name": "_sender",
          "type": "address"
        }
      ],
      "name": "loadSlotSubmissions",
      "outputs": [],
      "stateMutability": "nonpayable",
      "type": "function"
    },
    {
      "inputs": [
        {
          "internalType": "string",
          "name": "projectId",
          "type": "string"
        },
        {
          "internalType": "uint256",
          "name": "epochId",
          "type": "uint256"
        }
      ],
      "name": "maxSnapshotsCid",
      "outputs": [
        {
          "internalType": "string",
          "name": "",
          "type": "string"
        },
        {
          "internalType": "enum PowerloomDataMarket.SnapshotStatus",
          "name": "",
          "type": "uint8"
        }
      ],
      "stateMutability": "view",
      "type": "function"
    },
    {
      "inputs": [],
      "name": "owner",
      "outputs": [
        {
          "internalType": "address",
          "name": "",
          "type": "address"
        }
      ],
      "stateMutability": "view",
      "type": "function"
    },
    {
      "inputs": [],
      "name": "p1submissionWindow",
      "outputs": [
        {
          "internalType": "uint256",
          "name": "",
          "type": "uint256"
        }
      ],
      "stateMutability": "view",
      "type": "function"
    },
    {
      "inputs": [],
      "name": "pNsubmissionWindow",
      "outputs": [
        {
          "internalType": "uint256",
          "name": "",
          "type": "uint256"
        }
      ],
      "stateMutability": "view",
      "type": "function"
    },
    {
      "inputs": [
        {
          "internalType": "string",
          "name": "projectId",
          "type": "string"
        }
      ],
      "name": "projectFirstEpochId",
      "outputs": [
        {
          "internalType": "uint256",
          "name": "epochId",
          "type": "uint256"
        }
      ],
      "stateMutability": "view",
      "type": "function"
    },
    {
      "inputs": [],
      "name": "protocolState",
      "outputs": [
        {
          "internalType": "contract IPowerloomProtocolState",
          "name": "",
          "type": "address"
        }
      ],
      "stateMutability": "view",
      "type": "function"
    },
    {
      "inputs": [],
      "name": "proxiableUUID",
      "outputs": [
        {
          "internalType": "bytes32",
          "name": "",
          "type": "bytes32"
        }
      ],
      "stateMutability": "view",
      "type": "function"
    },
    {
      "inputs": [
        {
          "internalType": "uint256",
          "name": "begin",
          "type": "uint256"
        },
        {
          "internalType": "uint256",
          "name": "end",
          "type": "uint256"
        },
        {
          "internalType": "address",
          "name": "_sender",
          "type": "address"
        }
      ],
      "name": "releaseEpoch",
      "outputs": [
        {
          "internalType": "bool",
          "name": "",
          "type": "bool"
        },
        {
          "internalType": "bool",
          "name": "",
          "type": "bool"
        }
      ],
      "stateMutability": "nonpayable",
      "type": "function"
    },
    {
      "inputs": [],
      "name": "renounceOwnership",
      "outputs": [],
      "stateMutability": "nonpayable",
      "type": "function"
    },
    {
      "inputs": [],
      "name": "rewardPoolSize",
      "outputs": [
        {
          "internalType": "uint256",
          "name": "",
          "type": "uint256"
        }
      ],
      "stateMutability": "view",
      "type": "function"
    },
    {
      "inputs": [],
      "name": "rewardsEnabled",
      "outputs": [
        {
          "internalType": "bool",
          "name": "",
          "type": "bool"
        }
      ],
      "stateMutability": "view",
      "type": "function"
    },
    {
      "inputs": [
        {
          "internalType": "uint256",
          "name": "slotId",
          "type": "uint256"
        }
      ],
      "name": "slotRewardPoints",
      "outputs": [
        {
          "internalType": "uint256",
          "name": "slotRewardPoints",
          "type": "uint256"
        }
      ],
      "stateMutability": "view",
      "type": "function"
    },
    {
      "inputs": [
        {
          "internalType": "uint256",
          "name": "dayId",
          "type": "uint256"
        },
        {
          "internalType": "uint256",
          "name": "slotId",
          "type": "uint256"
        }
      ],
      "name": "slotRewardsDistributedStatus",
      "outputs": [
        {
          "internalType": "bool",
          "name": "rewardsDistributed",
          "type": "bool"
        }
      ],
      "stateMutability": "view",
      "type": "function"
    },
    {
      "inputs": [
        {
          "internalType": "uint256",
          "name": "slotId",
          "type": "uint256"
        },
        {
          "internalType": "uint256",
          "name": "dayId",
          "type": "uint256"
        }
      ],
      "name": "slotSubmissionCount",
      "outputs": [
        {
          "internalType": "uint256",
          "name": "snapshotCount",
          "type": "uint256"
        }
      ],
      "stateMutability": "view",
      "type": "function"
    },
    {
      "inputs": [
        {
          "internalType": "uint256",
          "name": "dayId",
          "type": "uint256"
        }
      ],
      "name": "slotsRemainingToBeRewardedCount",
      "outputs": [
        {
          "internalType": "uint256",
          "name": "slotsRemainingToBeRewarded",
          "type": "uint256"
        }
      ],
      "stateMutability": "view",
      "type": "function"
    },
    {
      "inputs": [],
      "name": "snapshotCommitWindow",
      "outputs": [
        {
          "internalType": "uint256",
          "name": "",
          "type": "uint256"
        }
      ],
      "stateMutability": "view",
      "type": "function"
    },
    {
      "inputs": [],
      "name": "snapshotRevealWindow",
      "outputs": [
        {
          "internalType": "uint256",
          "name": "",
          "type": "uint256"
        }
      ],
      "stateMutability": "view",
      "type": "function"
    },
    {
      "inputs": [
        {
          "internalType": "string",
          "name": "projectId",
          "type": "string"
        },
        {
          "internalType": "uint256",
          "name": "epochId",
          "type": "uint256"
        }
      ],
      "name": "snapshotStatus",
      "outputs": [
        {
          "internalType": "enum PowerloomDataMarket.SnapshotStatus",
          "name": "status",
          "type": "uint8"
        },
        {
          "internalType": "string",
          "name": "snapshotCid",
          "type": "string"
        },
        {
          "internalType": "uint256",
          "name": "timestamp",
          "type": "uint256"
        }
      ],
      "stateMutability": "view",
      "type": "function"
    },
    {
      "inputs": [
        {
          "internalType": "string",
          "name": "batchCid",
          "type": "string"
        },
        {
          "internalType": "uint256",
          "name": "epochId",
          "type": "uint256"
        },
        {
          "internalType": "string[]",
          "name": "projectIds",
          "type": "string[]"
        },
        {
          "internalType": "string[]",
          "name": "snapshotCids",
          "type": "string[]"
        },
        {
          "internalType": "bytes32",
          "name": "finalizedCidsRootHash",
          "type": "bytes32"
        }
      ],
      "name": "submitSubmissionBatch",
      "outputs": [],
      "stateMutability": "nonpayable",
      "type": "function"
    },
    {
      "inputs": [
        {
          "internalType": "address",
          "name": "_sender",
          "type": "address"
        }
      ],
      "name": "toggleRewards",
      "outputs": [],
      "stateMutability": "nonpayable",
      "type": "function"
    },
    {
      "inputs": [
        {
          "internalType": "address",
          "name": "newOwner",
          "type": "address"
        }
      ],
      "name": "transferOwnership",
      "outputs": [],
      "stateMutability": "nonpayable",
      "type": "function"
    },
    {
      "inputs": [
        {
          "internalType": "uint256",
          "name": "_dailySnapshotQuota",
          "type": "uint256"
        },
        {
          "internalType": "address",
          "name": "_sender",
          "type": "address"
        }
      ],
      "name": "updateDailySnapshotQuota",
      "outputs": [],
      "stateMutability": "nonpayable",
      "type": "function"
    },
    {
      "inputs": [
        {
          "internalType": "uint256",
          "name": "day",
          "type": "uint256"
        },
        {
          "internalType": "uint256",
          "name": "eligibleNodes",
          "type": "uint256"
        }
      ],
      "name": "updateEligibleNodesForDay",
      "outputs": [],
      "stateMutability": "nonpayable",
      "type": "function"
    },
    {
      "inputs": [
        {
          "internalType": "address",
          "name": "_address",
          "type": "address"
        },
        {
          "internalType": "address",
          "name": "_sender",
          "type": "address"
        }
      ],
      "name": "updateEpochManager",
      "outputs": [],
      "stateMutability": "nonpayable",
      "type": "function"
    },
    {
      "inputs": [
        {
          "internalType": "uint256",
          "name": "newRewardPoolSize",
          "type": "uint256"
        },
        {
          "internalType": "address",
          "name": "_sender",
          "type": "address"
        }
      ],
      "name": "updateRewardPoolSize",
      "outputs": [],
      "stateMutability": "nonpayable",
      "type": "function"
    },
    {
      "inputs": [
        {
          "internalType": "uint256",
          "name": "slotId",
          "type": "uint256"
        },
        {
          "internalType": "uint256",
          "name": "submissions",
          "type": "uint256"
        },
        {
          "internalType": "uint256",
          "name": "day",
          "type": "uint256"
        }
      ],
      "name": "updateRewards",
      "outputs": [
        {
          "internalType": "bool",
          "name": "",
          "type": "bool"
        }
      ],
      "stateMutability": "nonpayable",
      "type": "function"
    },
    {
      "inputs": [
        {
          "internalType": "uint256",
          "name": "_snapshotCommitWindow",
          "type": "uint256"
        },
        {
          "internalType": "uint256",
          "name": "_snapshotRevealWindow",
          "type": "uint256"
        },
        {
          "internalType": "uint256",
          "name": "_validatorVoteCommitWindow",
          "type": "uint256"
        },
        {
          "internalType": "uint256",
          "name": "_validatorVoteRevealWindow",
          "type": "uint256"
        },
        {
          "internalType": "uint256",
          "name": "_p1submissionWindow",
          "type": "uint256"
        },
        {
          "internalType": "uint256",
          "name": "_pNsubmissionWindow",
          "type": "uint256"
        },
        {
          "internalType": "address",
          "name": "_sender",
          "type": "address"
        }
      ],
      "name": "updateSubmissionWindowConfig",
      "outputs": [],
      "stateMutability": "nonpayable",
      "type": "function"
    },
    {
      "inputs": [
        {
          "internalType": "address",
          "name": "newImplementation",
          "type": "address"
        },
        {
          "internalType": "bytes",
          "name": "data",
          "type": "bytes"
        }
      ],
      "name": "upgradeToAndCall",
      "outputs": [],
      "stateMutability": "payable",
      "type": "function"
    },
    {
      "inputs": [],
      "name": "validatorVoteCommitWindow",
      "outputs": [
        {
          "internalType": "uint256",
          "name": "",
          "type": "uint256"
        }
      ],
      "stateMutability": "view",
      "type": "function"
    },
    {
      "inputs": [],
      "name": "validatorVoteRevealWindow",
      "outputs": [
        {
          "internalType": "uint256",
          "name": "",
          "type": "uint256"
        }
      ],
      "stateMutability": "view",
      "type": "function"
    }
  ],
  "bytecode": "0x60a0604052306080523480156200001557600080fd5b506200002062000026565b620000da565b7ff0c57e16840df040f15088dc2f81fe391c3923bec73e23a9662efc9c229c6a00805468010000000000000000900460ff1615620000775760405163f92ee8a960e01b815260040160405180910390fd5b80546001600160401b0390811614620000d75780546001600160401b0319166001600160401b0390811782556040519081527fc7f505b2f371ae2175ee4913f4499e1f2633a7b5936321eed1cdaeb6115181d29060200160405180910390a15b50565b608051613bf06200010460003960008181612cd101528181612cfa0152612e400152613bf06000f3fe6080604052600436106103ef5760003560e01c806362d564af11610208578063ad3cb1cc11610118578063cad1132a116100ab578063e2d2bfe31161007a578063e2d2bfe314610ce3578063e3042b1714610d03578063f2fde38b14610d19578063f3ac5e9214610d39578063fa30dbe014610d5757600080fd5b8063cad1132a14610c41578063cf00421714610c61578063d1dd6ddd14610c77578063db6e864f14610c9757600080fd5b8063be20f9ac116100e7578063be20f9ac14610b67578063c25564e114610bc3578063c2b97d4c14610be3578063c9ba561b14610c1157600080fd5b8063ad3cb1cc14610ae0578063ae423daf14610b11578063b37f259014610b27578063ba5e494014610b4757600080fd5b80637b0e13631161019b578063933d16871161016a578063933d168714610a3c5780639474092914610a5257806399332c5e14610a725780639dbc506414610a88578063a08f80a514610ac057600080fd5b80637b0e1363146109b65780638cdf3f67146109e55780638da5cb5b14610a1257806392ae6f6614610a2757600080fd5b8063715018a6116101d7578063715018a61461094c578063717466441461096157806374be215014610981578063766718081461099757600080fd5b806362d564af146108d4578063646d9323146108e95780636e81f234146108ff5780636e8d0e861461091f57600080fd5b8063331bce2d116103035780633b54c84e116102965780634ea16b0a116102655780634ea16b0a146108215780634f1ef2861461085957806352d1902d1461086c57806355dcaa1f1461088157806362656003146108a157600080fd5b80633b54c84e146107885780633b762661146107b4578063436e6ae9146107d4578063486429e7146107f457600080fd5b8063351b6155116102d2578063351b6155146106e65780633894228e146106fc578063392e53cd146107385780633aaf384d1461075957600080fd5b8063331bce2d14610656578063335e8a75146106865780633498020a146106a657806334c029a9146106c657600080fd5b80630c7f8700116103865780632188975c116103555780632188975c146105c357806322152353146105d957806323e78077146106065780632d46247b1461061c5780632f54bf6e1461063657600080fd5b80630c7f870014610532578063197ea7d31461057d5780631dafe16b14610593578063211b827d146105ad57600080fd5b806306d74d2d116103c257806306d74d2d146104a257806306e07f92146104b85780630b372a31146104da5780630b88f3a2146104fa57600080fd5b80630220499f146103f4578063034152641461041d5780630471dd4c14610455578063054db09e1461048c575b600080fd5b34801561040057600080fd5b5061040a60055481565b6040519081526020015b60405180910390f35b34801561042957600080fd5b5061040a61043836600461328b565b805160208183018101805160198252928201919093012091525481565b34801561046157600080fd5b506104756104703660046132dd565b610d8f565b604080519215158352901515602083015201610414565b34801561049857600080fd5b5061040a60105481565b3480156104ae57600080fd5b5061040a60145481565b3480156104c457600080fd5b506104d86104d33660046133b5565b6110d9565b005b3480156104e657600080fd5b506104d86104f536600461345d565b6115da565b34801561050657600080fd5b5060005461051a906001600160a01b031681565b6040516001600160a01b039091168152602001610414565b34801561053e57600080fd5b5061056d61054d3660046134d3565b602160209081526000928352604080842090915290825290205460ff1681565b6040519015158152602001610414565b34801561058957600080fd5b5061040a60115481565b34801561059f57600080fd5b50600f5461056d9060ff1681565b3480156105b957600080fd5b5061040a60045481565b3480156105cf57600080fd5b5061040a60135481565b3480156105e557600080fd5b506105f96105f43660046134d3565b6118a6565b6040516104149190613545565b34801561061257600080fd5b5061040a60085481565b34801561062857600080fd5b50600d5461056d9060ff1681565b34801561064257600080fd5b5061056d610651366004613558565b61195f565b34801561066257600080fd5b5061066b611983565b60408051938452602084019290925290820152606001610414565b34801561069257600080fd5b506104d86106a13660046134d3565b6119a1565b3480156106b257600080fd5b506104d86106c1366004613575565b611a42565b3480156106d257600080fd5b506104d86106e13660046135b6565b611aae565b3480156106f257600080fd5b5061040a600b5481565b34801561070857600080fd5b5061066b6107173660046135b6565b60166020526000908152604090208054600182015460029092015490919083565b34801561074457600080fd5b5060095461056d90600160a01b900460ff1681565b34801561076557600080fd5b506107796107743660046135cf565b611b4b565b6040516104149392919061364c565b34801561079457600080fd5b5061040a6107a33660046135b6565b602080526000908152604090205481565b3480156107c057600080fd5b506105f96107cf3660046135cf565b611c15565b3480156107e057600080fd5b506104d86107ef36600461367c565b611c40565b34801561080057600080fd5b5061040a61080f3660046135b6565b601f6020526000908152604090205481565b34801561082d57600080fd5b5061040a61083c36600461328b565b8051602081830181018051601c8252928201919093012091525481565b6104d86108673660046136dc565b611d12565b34801561087857600080fd5b5061040a611d2d565b34801561088d57600080fd5b506104d861089c366004613740565b611d4a565b3480156108ad57600080fd5b506009546108c290600160a81b900460ff1681565b60405160ff9091168152602001610414565b3480156108e057600080fd5b5061040a611dbf565b3480156108f557600080fd5b5061040a60155481565b34801561090b57600080fd5b506104d861091a366004613770565b611df0565b34801561092b57600080fd5b5061040a61093a3660046135b6565b60226020526000908152604090205481565b34801561095857600080fd5b506104d8611e88565b34801561096d57600080fd5b506104d861097c366004613558565b611e9c565b34801561098d57600080fd5b5061040a600a5481565b3480156109a357600080fd5b5060015460025460035461066b92919083565b3480156109c257600080fd5b5061056d6109d1366004613558565b6009546001600160a01b0390811691161490565b3480156109f157600080fd5b50610a05610a0036600461328b565b611f00565b604051610414919061379e565b348015610a1e57600080fd5b5061051a611ff7565b348015610a3357600080fd5b5061040a612025565b348015610a4857600080fd5b5061040a60125481565b348015610a5e57600080fd5b50610475610a6d3660046132dd565b6120fd565b348015610a7e57600080fd5b5061040a60065481565b348015610a9457600080fd5b5061040a610aa33660046134d3565b601e60209081526000928352604080842090915290825290205481565b348015610acc57600080fd5b506104d8610adb366004613740565b61243a565b348015610aec57600080fd5b506105f9604051806040016040528060058152602001640352e302e360dc1b81525081565b348015610b1d57600080fd5b5061040a600e5481565b348015610b3357600080fd5b5061056d610b42366004613802565b61248f565b348015610b5357600080fd5b506104d8610b62366004613740565b61285a565b348015610b7357600080fd5b50610b87610b823660046135b6565b6128af565b6040516104149190815181526020808301516001600160a01b031690820152604080830151908201526060918201519181019190915260800190565b348015610bcf57600080fd5b5061040a610bde36600461328b565b612a1c565b348015610bef57600080fd5b50610c03610bfe3660046135cf565b612a44565b60405161041492919061382e565b348015610c1d57600080fd5b5061056d610c2c3660046135b6565b601a6020526000908152604090205460ff1681565b348015610c4d57600080fd5b50610a05610c5c3660046135b6565b612b68565b348015610c6d57600080fd5b5061040a600c5481565b348015610c8357600080fd5b5061056d610c923660046134d3565b612c49565b348015610ca357600080fd5b50601054601154601254601354601454601554604080519687526020870195909552938501929092526060840152608083015260a082015260c001610414565b348015610cef57600080fd5b5060095461051a906001600160a01b031681565b348015610d0f57600080fd5b5061040a60075481565b348015610d2557600080fd5b506104d8610d34366004613558565b612c6f565b348015610d4557600080fd5b506009546001600160a01b031661051a565b348015610d6357600080fd5b5061040a610d7236600461328b565b8051602081830181018051601d8252928201919093012091525481565b60008054604051631d7f571f60e21b815230600482015282916001600160a01b0316906375fd5c7c90602401602060405180830381865afa158015610dd8573d6000803e3d6000fd5b505050506040513d601f19601f82011682018060405250810190610dfc9190613850565b610e335760405162461bcd60e51b815260206004820152600360248201526222981960e91b60448201526064015b60405180910390fd5b6000546001600160a01b03163314610e5d5760405162461bcd60e51b8152600401610e2a9061386d565b6009546001600160a01b03808516911614610ea05760405162461bcd60e51b815260206004820152600360248201526245303560e81b6044820152606401610e2a565b60008086861015610ed95760405162461bcd60e51b815260206004820152600360248201526204532360ec1b6044820152606401610e2a565b600954600160a81b900460ff16610ef088886138a0565b610efb9060016138b3565b14610f185760405162461bcd60e51b8152600401610e2a906138c6565b60015415610f63576002548790610f309060016138b3565b14610f635760405162461bcd60e51b815260206004820152600360248201526222991960e91b6044820152606401610e2a565b600954600160a81b900460ff166001148015610f815750600d5460ff165b15610f90576008869055610fa9565b600160086000828254610fa391906138b3565b90915550505b600754600854610fb991906138f9565b6001148015610fca57506001600854115b1561102757600160066000828254610fe291906138b3565b909155505060065460408051918252426020830152600193507ff391963fbbcec4cbb1f4a6c915c531364db26c103d31434223c3bddb703c94fe910160405180910390a15b50604080516060808201835288825260208083018990526008805493850184905260018b815560028b81556003869055865180860188524280825243828701908152828a018f81526000998a5260168852988a90209251835551828501559651910155905485518c81529283018b9052948201939093529192917f108f87075a74f81fa2271fdf9fc0883a1811431182601fc65d2451397033664091015b60405180910390a290969095509350505050565b6000546001600160a01b031633146111035760405162461bcd60e51b8152600401610e2a9061386d565b815183511461113a5760405162461bcd60e51b815260206004820152600360248201526245323360e81b6044820152606401610e2a565b60008351116111715760405162461bcd60e51b8152602060048201526003602482015262114c8d60ea1b6044820152606401610e2a565b6000848152601a602052604090205460ff16156111b65760405162461bcd60e51b815260206004820152600360248201526245343360e81b6044820152606401610e2a565b60006017866040516111c8919061390d565b908152604051908190036020019020541115611208576017856040516111ee919061390d565b908152602001604051809103902060006112089190613147565b60005b835181101561154c57601b84828151811061122857611228613929565b602002602001015160405161123d919061390d565b9081526040805160209281900383019020600088815292529020600201541561128e5760405162461bcd60e51b815260206004820152600360248201526245323560e81b6044820152606401610e2a565b6002601b8583815181106112a4576112a4613929565b60200260200101516040516112b9919061390d565b9081526040805160209281900383019020600089815292529020805460ff191660018360028111156112ed576112ed613614565b021790555082818151811061130457611304613929565b6020026020010151601b85838151811061132057611320613929565b6020026020010151604051611335919061390d565b90815260408051602092819003830190206000898152925290206001019061135d90826139c9565b5042601b85838151811061137357611373613929565b6020026020010151604051611388919061390d565b908152602001604051809103902060008781526020019081526020016000206002018190555084601c8583815181106113c3576113c3613929565b60200260200101516040516113d8919061390d565b908152602001604051809103902081905550601d8482815181106113fe576113fe613929565b6020026020010151604051611413919061390d565b9081526020016040518091039020546000036114645784601d85838151811061143e5761143e613929565b6020026020010151604051611453919061390d565b908152604051908190036020019020555b847fe5231a68c59ef23c90b7da4209eae4c795477f0d5dcfa14a612ea96f69a18e1560166000888152602001908152602001600020600201548684815181106114af576114af613929565b60200260200101518685815181106114c9576114c9613929565b6020026020010151426040516114e29493929190613a89565b60405180910390a26017866040516114fa919061390d565b908152602001604051809103902084828151811061151a5761151a613929565b6020908102919091018101518254600181018455600093845291909220019061154390826139c9565b5060010161120b565b5060008481526018602090815260408220805460018101825590835291200161157586826139c9565b5080601986604051611587919061390d565b908152602001604051809103902081905550837f3151fabdd1bacd216584de61e446f964f73b7864a351548f60ce030cb6242a0d86426040516115cb929190613ac6565b60405180910390a25050505050565b7ff0c57e16840df040f15088dc2f81fe391c3923bec73e23a9662efc9c229c6a008054600160401b810460ff16159067ffffffffffffffff166000811580156116205750825b905060008267ffffffffffffffff16600114801561163d5750303b155b90508115801561164b575080155b156116695760405163f92ee8a960e01b815260040160405180910390fd5b845467ffffffffffffffff19166001178555831561169357845460ff60401b1916600160401b1785555b61169c8b612cad565b6116a4612cbe565b6001600160a01b038b166116ca5760405162461bcd60e51b8152600401610e2a90613ae8565b6103e8600555600160065563337f9800600e556009805460ff60a81b1916600160a81b60ff8d1602179055600a899055600b889055861561173e578960ff1660011461173e5760405162461bcd60e51b815260206004820152600360248201526204531360ec1b6044820152606401610e2a565b600d805460ff191688151517905543600c558715801590611762575060008a60ff16115b6117ae5760405162461bcd60e51b815260206004820152601760248201527f496e76616c69642074696d6520706172616d65746572730000000000000000006044820152606401610e2a565b6117bb60ff8b1689613b05565b600e546117c89190613b1c565b60078190556118235760405162461bcd60e51b815260206004820152602160248201527f496e76616c69642065706f63687320696e206461792063616c63756c6174696f6044820152603760f91b6064820152608401610e2a565b600080546001600160a01b0388166001600160a01b03199091161790556009805460ff60a01b1916600160a01b179055831561189957845460ff60401b19168555604051600181527fc7f505b2f371ae2175ee4913f4499e1f2633a7b5936321eed1cdaeb6115181d29060200160405180910390a15b5050505050505050505050565b601860205281600052604060002081815481106118c257600080fd5b906000526020600020016000915091505080546118de9061393f565b80601f016020809104026020016040519081016040528092919081815260200182805461190a9061393f565b80156119575780601f1061192c57610100808354040283529160200191611957565b820191906000526020600020905b81548152906001019060200180831161193a57829003601f168201915b505050505081565b6000816001600160a01b0316611973611ff7565b6001600160a01b03161492915050565b6000806000611990611dbf565b601454601554925092509250909192565b6000546001600160a01b031633146119cb5760405162461bcd60e51b8152600401610e2a9061386d565b600082815260208052604090205415611a25576000828152602260205260408120549003611a215760405162461bcd60e51b815260206004820152600360248201526245343760e81b6044820152606401610e2a565b5050565b600091825260208080526040808420839055602290915290912055565b6000546001600160a01b03163314611a6c5760405162461bcd60e51b8152600401610e2a9061386d565b611a758161195f565b611a915760405162461bcd60e51b8152600401610e2a90613b30565b506000928352601e60209081526040808520938552929052912055565b6000818152601a602052604090205460ff1615611af35760405162461bcd60e51b815260206004820152600360248201526245333960e81b6044820152606401610e2a565b6000818152601a602052604090819020805460ff191660011790555181907f2b2a61c393ac413d7f99c0a6447e48e95915d95e379bfc8e26330c9611c904ce90611b409042815260200190565b60405180910390a250565b8151602081840181018051601b82529282019482019490942091909352909152600090815260409020805460018201805460ff9092169291611b8c9061393f565b80601f0160208091040260200160405190810160405280929190818152602001828054611bb89061393f565b8015611c055780601f10611bda57610100808354040283529160200191611c05565b820191906000526020600020905b815481529060010190602001808311611be857829003601f168201915b5050505050908060020154905083565b815160208184018101805160178252928201918501919091209190528054829081106118c257600080fd5b6000546001600160a01b03163314611c6a5760405162461bcd60e51b8152600401610e2a9061386d565b611c738161195f565b611c8f5760405162461bcd60e51b8152600401610e2a90613b30565b6010879055601186905560128590556013849055601483905560158290556040805188815260208101889052908101869052606081018590526080810184905260a081018390524260c08201527f7c71d6bf96d8ca2e9949e6c6f6b1cbcc0365cf9da6993cd7dbcaea9197bd594d9060e00160405180910390a150505050505050565b611d1a612cc6565b611d2382612d6b565b611a218282612d73565b6000611d37612e35565b50600080516020613b9b83398151915290565b6000546001600160a01b03163314611d745760405162461bcd60e51b8152600401610e2a9061386d565b611d7d8161195f565b611d995760405162461bcd60e51b8152600401610e2a90613b30565b81600003611db95760405162461bcd60e51b8152600401610e2a90613ae8565b50600555565b6000601354601254601154601054611dd791906138b3565b611de191906138b3565b611deb91906138b3565b905090565b6000546001600160a01b03163314611e1a5760405162461bcd60e51b8152600401610e2a9061386d565b611e238161195f565b611e3f5760405162461bcd60e51b8152600401610e2a90613b30565b6001600160a01b038216611e655760405162461bcd60e51b8152600401610e2a90613ae8565b50600980546001600160a01b0319166001600160a01b0392909216919091179055565b611e90612e7e565b611e9a6000612eb0565b565b6000546001600160a01b03163314611ec65760405162461bcd60e51b8152600401610e2a9061386d565b611ecf8161195f565b611eeb5760405162461bcd60e51b8152600401610e2a90613b30565b50600f805460ff19811660ff90911615179055565b6060601782604051611f12919061390d565b9081526020016040518091039020805480602002602001604051908101604052809291908181526020016000905b82821015611fec578382906000526020600020018054611f5f9061393f565b80601f0160208091040260200160405190810160405280929190818152602001828054611f8b9061393f565b8015611fd85780601f10611fad57610100808354040283529160200191611fd8565b820191906000526020600020905b815481529060010190602001808311611fbb57829003601f168201915b505050505081526020019060010190611f40565b505050509050919050565b7f9016d09d72d40fdae2fd8ceac6b6234c7706214fd39c1cd1e609a0528c199300546001600160a01b031690565b6000805460408051630d08143360e21b8152905183926001600160a01b03169163342050cc9160048083019260209291908290030181865afa15801561206f573d6000803e3d6000fd5b505050506040513d601f19601f820116820180604052508101906120939190613b4d565b9050806001600160a01b03166392ae6f666040518163ffffffff1660e01b8152600401602060405180830381865afa1580156120d3573d6000803e3d6000fd5b505050506040513d601f19601f820116820180604052508101906120f79190613b6a565b91505090565b60008054604051631d7f571f60e21b815230600482015282916001600160a01b0316906375fd5c7c90602401602060405180830381865afa158015612146573d6000803e3d6000fd5b505050506040513d601f19601f8201168201806040525081019061216a9190613850565b61219c5760405162461bcd60e51b815260206004820152600360248201526222981960e91b6044820152606401610e2a565b6000546001600160a01b031633146121c65760405162461bcd60e51b8152600401610e2a9061386d565b6121cf8361195f565b6121eb5760405162461bcd60e51b8152600401610e2a90613b30565b600080868610156122245760405162461bcd60e51b815260206004820152600360248201526204532360ec1b6044820152606401610e2a565b600954600160a81b900460ff1661223b88886138a0565b6122469060016138b3565b146122635760405162461bcd60e51b8152600401610e2a906138c6565b600954600254600160a81b90910460ff169061227f90886138a0565b61228991906138f9565b156122a65760405162461bcd60e51b8152600401610e2a906138c6565b600954600160a81b900460ff1660011480156122c45750600d5460ff165b156122d3576008869055612310565b600954600254600160a81b90910460ff16906122ef90886138a0565b6122f99190613b1c565b6008600082825461230a91906138b3565b90915550505b604080516060808201835289825260208083018a90526008805493850184905260018c815560028c8155600386905586519485018752428552438585019081528588018e815260009788526016909552969095209351845594519483019490945551910155600754905461238491906138f9565b600114801561239557506001600854115b156123f2576001600660008282546123ad91906138b3565b909155505060065460408051918252426020830152600193507ff391963fbbcec4cbb1f4a6c915c531364db26c103d31434223c3bddb703c94fe910160405180910390a15b5060085460408051888152602081018890524291810191909152600191907f108f87075a74f81fa2271fdf9fc0883a1811431182601fc65d24513970336640906060016110c5565b6000546001600160a01b031633146124645760405162461bcd60e51b8152600401610e2a9061386d565b61246d8161195f565b6124895760405162461bcd60e51b8152600401610e2a90613b30565b50600655565b600080546001600160a01b031633146124ba5760405162461bcd60e51b8152600401610e2a9061386d565b6006548214806124d7575060016006546124d491906138a0565b82145b6125095760405162461bcd60e51b815260206004820152600360248201526208a66760eb1b6044820152606401610e2a565b60008060009054906101000a90046001600160a01b03166001600160a01b031663342050cc6040518163ffffffff1660e01b8152600401602060405180830381865afa15801561255d573d6000803e3d6000fd5b505050506040513d601f19601f820116820180604052508101906125819190613b4d565b6040516397a9ae2760e01b8152600481018790529091506000906001600160a01b038316906397a9ae2790602401602060405180830381865afa1580156125cc573d6000803e3d6000fd5b505050506040513d601f19601f820116820180604052508101906125f09190613850565b90508061260257600092505050612853565b604051636fd8040f60e11b8152600481018790526000906001600160a01b0384169063dfb0081e90602401602060405180830381865afa15801561264a573d6000803e3d6000fd5b505050506040513d601f19601f8201168201806040525081019061266e9190613b4d565b60008681526021602090815260408083208b845290915290205490915060ff16156126c15760405162461bcd60e51b815260206004820152600360248201526208a68760eb1b6044820152606401610e2a565b6000878152601e602090815260408083208884529091529020869055600554861061284b576000858152602080526040902054156127ef5760008581526020805260409020546004546127149190613b1c565b6000888152601f6020526040812080549091906127329084906138b3565b909155505060008581526021602090815260408083208a84528252808320805460ff191660011790558783526022909152812080549161277183613b83565b91905055507f18ea31eebfbd96f0fbddb48c5c9beca4b3952c503de5436b956c4e6168178766818887602060008a8152602001908152602001600020546004546127bb9190613b1c565b604080516001600160a01b039095168552602085019390935291830152606082015242608082015260a00160405180910390a15b604080516001600160a01b0383168152602081018990529081018690524260608201527f34c900c4105cef3bd58c4b7d2b6fe54f1f64845d5bd5ed2e2e92b52aed2d58ae9060800160405180910390a160019350505050612853565b600093505050505b9392505050565b6000546001600160a01b031633146128845760405162461bcd60e51b8152600401610e2a9061386d565b61288d8161195f565b6128a95760405162461bcd60e51b8152600401610e2a90613b30565b50600455565b6128e360405180608001604052806000815260200160006001600160a01b0316815260200160008152602001600081525090565b60008060009054906101000a90046001600160a01b03166001600160a01b031663342050cc6040518163ffffffff1660e01b8152600401602060405180830381865afa158015612937573d6000803e3d6000fd5b505050506040513d601f19601f8201168201806040525081019061295b9190613b4d565b604051636fd8040f60e11b8152600481018590529091506000906001600160a01b0383169063dfb0081e90602401602060405180830381865afa1580156129a6573d6000803e3d6000fd5b505050506040513d601f19601f820116820180604052508101906129ca9190613b4d565b6000858152601f6020908152604080832054601e835281842060065485528352928190205481516080810183529889526001600160a01b03909416918801919091528601526060850152509192915050565b6000601782604051612a2e919061390d565b9081526040519081900360200190205492915050565b6060600080601b85604051612a59919061390d565b908152602001604051809103902060008581526020019081526020016000206001018054612a869061393f565b80601f0160208091040260200160405190810160405280929190818152602001828054612ab29061393f565b8015612aff5780601f10612ad457610100808354040283529160200191612aff565b820191906000526020600020905b815481529060010190602001808311612ae257829003601f168201915b50505050509050600081511115612b4b5780601b86604051612b21919061390d565b90815260408051602092819003830190206000888152925290205490935060ff169150612b619050565b5050604080516020810190915260008152905060015b9250929050565b606060186000838152602001908152602001600020805480602002602001604051908101604052809291908181526020016000905b82821015611fec578382906000526020600020018054612bbc9061393f565b80601f0160208091040260200160405190810160405280929190818152602001828054612be89061393f565b8015612c355780601f10612c0a57610100808354040283529160200191612c35565b820191906000526020600020905b815481529060010190602001808311612c1857829003601f168201915b505050505081526020019060010190612b9d565b6005546000838152601e6020908152604080832085845290915290205410155b92915050565b612c77612e7e565b6001600160a01b038116612ca157604051631e4fbdf760e01b815260006004820152602401610e2a565b612caa81612eb0565b50565b612cb5612f21565b612caa81612f6a565b611e9a612f21565b306001600160a01b037f0000000000000000000000000000000000000000000000000000000000000000161480612d4d57507f00000000000000000000000000000000000000000000000000000000000000006001600160a01b0316612d41600080516020613b9b833981519152546001600160a01b031690565b6001600160a01b031614155b15611e9a5760405163703e46dd60e11b815260040160405180910390fd5b612caa612e7e565b816001600160a01b03166352d1902d6040518163ffffffff1660e01b8152600401602060405180830381865afa925050508015612dcd575060408051601f3d908101601f19168201909252612dca91810190613b6a565b60015b612df557604051634c9c8ce360e01b81526001600160a01b0383166004820152602401610e2a565b600080516020613b9b8339815191528114612e2657604051632a87526960e21b815260048101829052602401610e2a565b612e308383612f72565b505050565b306001600160a01b037f00000000000000000000000000000000000000000000000000000000000000001614611e9a5760405163703e46dd60e11b815260040160405180910390fd5b33612e87611ff7565b6001600160a01b031614611e9a5760405163118cdaa760e01b8152336004820152602401610e2a565b7f9016d09d72d40fdae2fd8ceac6b6234c7706214fd39c1cd1e609a0528c19930080546001600160a01b031981166001600160a01b03848116918217845560405192169182907f8be0079c531659141344cd1fd0a4f28419497f9722a3daafe3b4186f6b6457e090600090a3505050565b7ff0c57e16840df040f15088dc2f81fe391c3923bec73e23a9662efc9c229c6a0054600160401b900460ff16611e9a57604051631afcd79f60e31b815260040160405180910390fd5b612c77612f21565b612f7b82612fc8565b6040516001600160a01b038316907fbc7cd75a20ee27fd9adebab32041f755214dbc6bffa90cc0225b39da2e5c2d3b90600090a2805115612fc057612e30828261302d565b611a216130a3565b806001600160a01b03163b600003612ffe57604051634c9c8ce360e01b81526001600160a01b0382166004820152602401610e2a565b600080516020613b9b83398151915280546001600160a01b0319166001600160a01b0392909216919091179055565b6060600080846001600160a01b03168460405161304a919061390d565b600060405180830381855af49150503d8060008114613085576040519150601f19603f3d011682016040523d82523d6000602084013e61308a565b606091505b509150915061309a8583836130c2565b95945050505050565b3415611e9a5760405163b398979f60e01b815260040160405180910390fd5b6060826130d7576130d28261311e565b612853565b81511580156130ee57506001600160a01b0384163b155b1561311757604051639996b31560e01b81526001600160a01b0385166004820152602401610e2a565b5080612853565b80511561312e5780518082602001fd5b60405163d6bda27560e01b815260040160405180910390fd5b5080546000825590600052602060002090810190612caa91905b8082111561317e5760006131758282613182565b50600101613161565b5090565b50805461318e9061393f565b6000825580601f1061319e575050565b601f016020900490600052602060002090810190612caa91905b8082111561317e57600081556001016131b8565b634e487b7160e01b600052604160045260246000fd5b604051601f8201601f1916810167ffffffffffffffff8111828210171561320b5761320b6131cc565b604052919050565b600067ffffffffffffffff83111561322d5761322d6131cc565b613240601f8401601f19166020016131e2565b905082815283838301111561325457600080fd5b828260208301376000602084830101529392505050565b600082601f83011261327c57600080fd5b61285383833560208501613213565b60006020828403121561329d57600080fd5b813567ffffffffffffffff8111156132b457600080fd5b6132c08482850161326b565b949350505050565b6001600160a01b0381168114612caa57600080fd5b6000806000606084860312156132f257600080fd5b8335925060208401359150604084013561330b816132c8565b809150509250925092565b600082601f83011261332757600080fd5b8135602067ffffffffffffffff80831115613344576133446131cc565b8260051b6133538382016131e2565b938452858101830193838101908886111561336d57600080fd5b84880192505b858310156133a95782358481111561338b5760008081fd5b6133998a87838c010161326b565b8352509184019190840190613373565b98975050505050505050565b600080600080600060a086880312156133cd57600080fd5b853567ffffffffffffffff808211156133e557600080fd5b6133f189838a0161326b565b965060208801359550604088013591508082111561340e57600080fd5b61341a89838a01613316565b9450606088013591508082111561343057600080fd5b5061343d88828901613316565b95989497509295608001359392505050565b8015158114612caa57600080fd5b60008060008060008060c0878903121561347657600080fd5b8635613481816132c8565b9550602087013560ff8116811461349757600080fd5b9450604087013593506060870135925060808701356134b58161344f565b915060a08701356134c5816132c8565b809150509295509295509295565b600080604083850312156134e657600080fd5b50508035926020909101359150565b60005b838110156135105781810151838201526020016134f8565b50506000910152565b600081518084526135318160208601602086016134f5565b601f01601f19169290920160200192915050565b6020815260006128536020830184613519565b60006020828403121561356a57600080fd5b8135612853816132c8565b6000806000806080858703121561358b57600080fd5b84359350602085013592506040850135915060608501356135ab816132c8565b939692955090935050565b6000602082840312156135c857600080fd5b5035919050565b600080604083850312156135e257600080fd5b823567ffffffffffffffff8111156135f957600080fd5b6136058582860161326b565b95602094909401359450505050565b634e487b7160e01b600052602160045260246000fd5b6003811061364857634e487b7160e01b600052602160045260246000fd5b9052565b613656818561362a565b60606020820152600061366c6060830185613519565b9050826040830152949350505050565b600080600080600080600060e0888a03121561369757600080fd5b873596506020880135955060408801359450606088013593506080880135925060a0880135915060c08801356136cc816132c8565b8091505092959891949750929550565b600080604083850312156136ef57600080fd5b82356136fa816132c8565b9150602083013567ffffffffffffffff81111561371657600080fd5b8301601f8101851361372757600080fd5b61373685823560208401613213565b9150509250929050565b6000806040838503121561375357600080fd5b823591506020830135613765816132c8565b809150509250929050565b6000806040838503121561378357600080fd5b823561378e816132c8565b91506020830135613765816132c8565b600060208083016020845280855180835260408601915060408160051b87010192506020870160005b828110156137f557603f198886030184526137e3858351613519565b945092850192908501906001016137c7565b5092979650505050505050565b60008060006060848603121561381757600080fd5b505081359360208301359350604090920135919050565b6040815260006138416040830185613519565b9050612853602083018461362a565b60006020828403121561386257600080fd5b81516128538161344f565b602080825260039082015262114d0d60ea1b604082015260600190565b634e487b7160e01b600052601160045260246000fd5b81810381811115612c6957612c6961388a565b80820180821115612c6957612c6961388a565b60208082526003908201526245323160e81b604082015260600190565b634e487b7160e01b600052601260045260246000fd5b600082613908576139086138e3565b500690565b6000825161391f8184602087016134f5565b9190910192915050565b634e487b7160e01b600052603260045260246000fd5b600181811c9082168061395357607f821691505b60208210810361397357634e487b7160e01b600052602260045260246000fd5b50919050565b601f821115612e30576000816000526020600020601f850160051c810160208610156139a25750805b601f850160051c820191505b818110156139c1578281556001016139ae565b505050505050565b815167ffffffffffffffff8111156139e3576139e36131cc565b6139f7816139f1845461393f565b84613979565b602080601f831160018114613a2c5760008415613a145750858301515b600019600386901b1c1916600185901b1785556139c1565b600085815260208120601f198616915b82811015613a5b57888601518255948401946001909101908401613a3c565b5085821015613a795787850151600019600388901b60f8161c191681555b5050505050600190811b01905550565b848152608060208201526000613aa26080830186613519565b8281036040840152613ab48186613519565b91505082606083015295945050505050565b604081526000613ad96040830185613519565b90508260208301529392505050565b60208082526003908201526245343560e81b604082015260600190565b8082028115828204841417612c6957612c6961388a565b600082613b2b57613b2b6138e3565b500490565b60208082526003908201526245303360e81b604082015260600190565b600060208284031215613b5f57600080fd5b8151612853816132c8565b600060208284031215613b7c57600080fd5b5051919050565b600081613b9257613b9261388a565b50600019019056fe360894a13ba1a3210667c828492db98dca3e2076cc3735a920a3ca505d382bbca2646970667358221220ae0c6508c8fc7f4e64247f46faa822c294395ade7391919dbac5ac3e6cdf944864736f6c63430008180033",
  "linkReferences": {},
  "deployedLinkReferences": {}
}